{
  "contractName": "Flashloan",
  "abi": [
    {
      "constant": true,
      "inputs": [],
      "name": "addressesProvider",
      "outputs": [
        {
          "name": "",
          "type": "address"
        }
      ],
      "payable": false,
      "stateMutability": "view",
      "type": "function"
    },
    {
      "payable": true,
      "stateMutability": "payable",
      "type": "fallback"
    },
    {
      "constant": false,
      "inputs": [
        {
          "name": "_asset",
          "type": "address"
        },
        {
          "name": "_amount",
          "type": "uint256"
        }
      ],
      "name": "flashloan",
      "outputs": [],
      "payable": false,
      "stateMutability": "nonpayable",
      "type": "function"
    },
    {
      "constant": false,
      "inputs": [
        {
          "name": "_reserve",
          "type": "address"
        },
        {
          "name": "_amount",
          "type": "uint256"
        },
        {
          "name": "_fee",
          "type": "uint256"
        },
        {
          "name": "_params",
          "type": "bytes"
        }
      ],
      "name": "executeOperation",
      "outputs": [],
      "payable": false,
      "stateMutability": "nonpayable",
      "type": "function"
    }
  ],
  "bytecode": "0x608060405234801561001057600080fd5b50610c26806100206000396000f3fe6080604052600436106100345760003560e01c80638e5f5f5714610036578063c72c4d1014610091578063ee872558146100e8575b005b34801561004257600080fd5b5061008f6004803603604081101561005957600080fd5b81019080803573ffffffffffffffffffffffffffffffffffffffff169060200190929190803590602001909291905050506101a2565b005b34801561009d57600080fd5b506100a6610395565b604051808273ffffffffffffffffffffffffffffffffffffffff1673ffffffffffffffffffffffffffffffffffffffff16815260200191505060405180910390f35b3480156100f457600080fd5b506101a06004803603608081101561010b57600080fd5b81019080803573ffffffffffffffffffffffffffffffffffffffff16906020019092919080359060200190929190803590602001909291908035906020019064010000000081111561015c57600080fd5b82018360208201111561016e57600080fd5b8035906020019184600183028401116401000000008311171561019057600080fd5b90919293919293905050506103ad565b005b60606040518060200160405280600081525090506000731c8756fd2b28e9426cdbdcc7e3c4d64fa9a5472873ffffffffffffffffffffffffffffffffffffffff16630261bf8b6040518163ffffffff1660e01b815260040160206040518083038186803b15801561021257600080fd5b505afa158015610226573d6000803e3d6000fd5b505050506040513d602081101561023c57600080fd5b810190808051906020019092919050505090508073ffffffffffffffffffffffffffffffffffffffff16635cffe9de308686866040518563ffffffff1660e01b8152600401808573ffffffffffffffffffffffffffffffffffffffff1673ffffffffffffffffffffffffffffffffffffffff1681526020018473ffffffffffffffffffffffffffffffffffffffff1673ffffffffffffffffffffffffffffffffffffffff16815260200183815260200180602001828103825283818151815260200191508051906020019080838360005b8381101561032857808201518184015260208101905061030d565b50505050905090810190601f1680156103555780820380516001836020036101000a031916815260200191505b5095505050505050600060405180830381600087803b15801561037757600080fd5b505af115801561038b573d6000803e3d6000fd5b5050505050505050565b731c8756fd2b28e9426cdbdcc7e3c4d64fa9a5472881565b6103b73086610438565b84111561040f576040517f08c379a000000000000000000000000000000000000000000000000000000000815260040180806020018281038252602e815260200180610ba3602e913960400191505060405180910390fd5b6000610424848661055590919063ffffffff16565b905061043086826105dd565b505050505050565b6000610442610686565b73ffffffffffffffffffffffffffffffffffffffff168273ffffffffffffffffffffffffffffffffffffffff161415610494578273ffffffffffffffffffffffffffffffffffffffff1631905061054f565b8173ffffffffffffffffffffffffffffffffffffffff166370a08231846040518263ffffffff1660e01b8152600401808273ffffffffffffffffffffffffffffffffffffffff1673ffffffffffffffffffffffffffffffffffffffff16815260200191505060206040518083038186803b15801561051157600080fd5b505afa158015610525573d6000803e3d6000fd5b505050506040513d602081101561053b57600080fd5b810190808051906020019092919050505090505b92915050565b6000808284019050838110156105d3576040517f08c379a000000000000000000000000000000000000000000000000000000000815260040180806020018281038252601b8152602001807f536166654d6174683a206164646974696f6e206f766572666c6f77000000000081525060200191505060405180910390fd5b8091505092915050565b6000731c8756fd2b28e9426cdbdcc7e3c4d64fa9a5472873ffffffffffffffffffffffffffffffffffffffff1663ed6ff7606040518163ffffffff1660e01b815260040160206040518083038186803b15801561063957600080fd5b505afa15801561064d573d6000803e3d6000fd5b505050506040513d602081101561066357600080fd5b810190808051906020019092919050505090506106818184846106a2565b505050565b600073eeeeeeeeeeeeeeeeeeeeeeeeeeeeeeeeeeeeeeee905090565b6106aa610686565b73ffffffffffffffffffffffffffffffffffffffff168273ffffffffffffffffffffffffffffffffffffffff161415610748578273ffffffffffffffffffffffffffffffffffffffff168160405180600001905060006040518083038185875af1925050503d806000811461073b576040519150601f19603f3d011682016040523d82523d6000602084013e610740565b606091505b505050610774565b61077383828473ffffffffffffffffffffffffffffffffffffffff166107799092919063ffffffff16565b5b505050565b610845838473ffffffffffffffffffffffffffffffffffffffff1663a9059cbb905060e01b8484604051602401808373ffffffffffffffffffffffffffffffffffffffff1673ffffffffffffffffffffffffffffffffffffffff16815260200182815260200192505050604051602081830303815290604052907bffffffffffffffffffffffffffffffffffffffffffffffffffffffff19166020820180517bffffffffffffffffffffffffffffffffffffffffffffffffffffffff838183161783525050505061084a565b505050565b60606108ac826040518060400160405280602081526020017f5361666545524332303a206c6f772d6c6576656c2063616c6c206661696c65648152508573ffffffffffffffffffffffffffffffffffffffff166109399092919063ffffffff16565b9050600081511115610934578080602001905160208110156108cd57600080fd5b8101908080519060200190929190505050610933576040517f08c379a000000000000000000000000000000000000000000000000000000000815260040180806020018281038252602a815260200180610bd1602a913960400191505060405180910390fd5b5b505050565b60606109488484600085610951565b90509392505050565b606061095c85610b57565b6109ce576040517f08c379a000000000000000000000000000000000000000000000000000000000815260040180806020018281038252601d8152602001807f416464726573733a2063616c6c20746f206e6f6e2d636f6e747261637400000081525060200191505060405180910390fd5b600060608673ffffffffffffffffffffffffffffffffffffffff1685876040518082805190602001908083835b60208310610a1e57805182526020820191506020810190506020830392506109fb565b6001836020036101000a03801982511681845116808217855250505050505090500191505060006040518083038185875af1925050503d8060008114610a80576040519150601f19603f3d011682016040523d82523d6000602084013e610a85565b606091505b50915091508115610a9a578092505050610b4f565b600081511115610aad5780518082602001fd5b836040517f08c379a00000000000000000000000000000000000000000000000000000000081526004018080602001828103825283818151815260200191508051906020019080838360005b83811015610b14578082015181840152602081019050610af9565b50505050905090810190601f168015610b415780820380516001836020036101000a031916815260200191505b509250505060405180910390fd5b949350505050565b60008060007fc5d2460186f7233c927e7db2dcc703c0e500b653ca82273b7bfad8045d85a47060001b9050833f9150808214158015610b9957506000801b8214155b9250505091905056fe496e76616c69642062616c616e63652c207761732074686520666c6173686c6f6164207375636365737366756c3f5361666545524332303a204552433230206f7065726174696f6e20646964206e6f742073756363656564a165627a7a723058204d880d3430e4d5a38bce3470f0c56134283a6a0fc8115b938688319c3a914a540029",
  "source": "pragma solidity ^0.5.0;\n\nimport \"./aave/FlashLoanReceiverBase.sol\";\nimport \"./aave/ILendingPoolAddressesProvider.sol\";\nimport \"./aave/ILendingPool.sol\";\n\ncontract Flashloan is FlashLoanReceiverBase {\n\n    function flashloan(address _asset, uint256 _amount) external {\n        bytes memory data = \"\";\n        ILendingPool lendingPool = ILendingPool(\n            addressesProvider.getLendingPool()\n        );\n        // invoke a flashloadn and receive a loan on this contract itself\n        lendingPool.flashLoan(address(this), _asset, _amount, data);\n    }\n\n    function executeOperation(\n        address _reserve,\n        uint256 _amount,\n        uint256 _fee,\n        bytes calldata _params\n    ) external {\n        require(\n            _amount <= getBalanceInternal(address(this), _reserve),\n            \"Invalid balance, was the flashload successful?\"\n        );\n\n        // arbitrage, refinance loan, swap collaterals\n        // empty flashloan does nothing but transfer the funds back with fee\n\n        // Time to transfer the funds back\n        uint256 totalDebt = _amount.add(_fee);\n        transferFundsBackToPoolInternal(_reserve, totalDebt);\n    }\n}\n",
  "sourcePath": "/home/ether/work/truffle/aave_flashloan/contracts/FlashLoan.sol",
  "compiler": {
    "name": "solc",
    "version": "0.5.8+commit.23d335f2.Emscripten.clang"
  },
  "schemaVersion": "3.0.16",
  "updatedAt": "2020-07-02T08:53:30.679Z",
  "devdoc": {
    "methods": {}
  },
  "userdoc": {
    "methods": {}
  }
}